S0140000736572766F436C61737356312E7372656364
S11300000C9434000C943E000C943E000C943E007E
S11300100C943E000C943E000C943E000C943E0064
S11300200C943E000C943E000C943E000C943E0054
S11300300C943E000C943E000C943E000C943E0044
S11300400C943E000C943E000C943E000C943E0034
S11300500C943E000C943E000C943E000C943E0024
S11300600C943E000C943E0011241FBECFEFD8E048
S1130070DEBFCDBF0E9440000C9490000C940000A1
S11300808FE39CE99093870080938600E0E8F0E09A
S1130090808182608083808180688083E1E8F0E0F1
S11300A080818A618083219A569A87EE93E09093A7
S11300B0890080938800E8E8F0E047EE53E083E5A8
S11300C09BE028E833E1518340836FEF73EDA0E3B5
S11300D061507040A040E1F700C00000918380832C
S11300E06FEF73EDA0E361507040A040E1F700C0F2
S11300F00000318320836FEF73EDA0E36150704003
S1130100A040E1F700C00000918380836FEF73ED9E
S1130110A0E361507040A040E1F700C00000D3CFDD
S1070120F894FFCF7D
S9030000FC
