S01400006D6F746F72447269766556312E737265635E
S11300000C9434000C9446000C9446000C94460066
S11300100C9446000C9446000C9446000C94460044
S11300200C9446000C9446000C9446000C94460034
S11300300C9446000C9446000C9446000C949500D5
S11300400C9448000C9446000C9446000C94460012
S11300500C9446000C9446000C9446000C94460004
S11300600C9446000C94460011241FBECFEFD8E038
S1130070DEBFCDBF21E0A0E0B1E001C01D92A430FD
S1130080B207E1F70E94A4000C94B7000C9400009E
S11300901F920F920FB60F9211242F938F939F9359
S11300A085B1806285B9809100019091010101962A
S11300B090930101809300018091000190910101CE
S11300C08034964051F580910201811106C080E888
S11300D088BD81E0809302011CC0809102018130BF
S11300E031F48FEB88BD82E08093020112C08091CD
S11300F00201823031F480E488BD83E08093020100
S113010008C080910201833021F48FEF88BD1092E2
S1130110020110920101109200019F918F912F9181
S11301200F900FBE0F901F9018951F920F920FB64D
S11301300F9211248F9385B18F7D85B98F910F9084
S11301400FBE0F901F90189584B1806284B985B555
S1130150836085BDEEE6F0E08081846080838081E9
S113016081608083789489E180930301FFCFF894C0
S1050170FFCFBB
S9030000FC
