S013000050574E56617250696E56312E7372656345
S11300000C9434000C9446000C9446000C94460066
S11300100C9446000C9446000C9446000C94460044
S11300200C9446000C9446000C9446000C94460034
S11300300C9446000C9446000C945C000C946B00E9
S11300400C9448000C9446000C9446000C94460012
S11300500C9446000C9446000C9446000C94460004
S11300600C9446000C94460011241FBECFEFD8E038
S1130070DEBFCDBF21E0A0E0B1E001C01D92A230FF
S1130080B207E1F70E947A000C94AA000C940000D5
S11300901F920F920FB60F9211248F938FEF8BB98B
S11300A08091010187BD8091000188BD8F910F90DF
S11300B00FBE0F901F9018951F920F920FB60F92BC
S11300C011248F938BB1807F8BB98F910F900FBECA
S11300D00F901F9018951F920F920FB60F92112434
S11300E08F938BB18F708BB98F910F900FBE0F9040
S11300F01F9018958FEF8AB985B5836085BDEEE6AC
S1130100F0E0808186608083808181608083789440
S113011080E08F3F71F0EFEDFEE23197F1F700C020
S1130120000080930101982F9095909300018F5FB8
S1130130F0CF8EEF882361F3EFEDFEE23197F1F714
S113014000C0000080930101982F909590930001C6
S10B01508150F0CFF894FFCFB9
S9030000FC
