:100000000C9434000C943E000C943E000C943E0082
:100010000C943E000C943E000C943E000C943E0068
:100020000C943E000C943E000C943E000C943E0058
:100030000C943E000C943E000C943E000C943E0048
:100040000C943E000C943E000C943E000C943E0038
:100050000C943E000C943E000C943E000C943E0028
:100060000C943E000C943E0011241FBECFEFD8E04C
:10007000DEBFCDBF0E9451000C947E000C940000A6
:10008000E0E8F0E0808182688083E1E8F0E0808150
:100090008A61808380E29EE490938700809386004B
:1000A0000895219A0E944000E8E8F0E048EE53E00D
:1000B00020EF3AE088EF91E1518340836FEF73EDD9
:1000C000A0E361507040A040E1F700C00000318320
:1000D00020836FEF73EDA0E361507040A040E1F723
:1000E00000C00000918380836FEF73EDA0E3615047
:1000F0007040A040E1F700C00000DECFF894FFCFD1
:00000001FF
