:100000000C9434000C9451000C9451000C94510049
:100010000C9451000C9451000C9451000C9451001C
:100020000C9451000C9451000C9451000C9451000C
:100030000C9451000C9451000C9451000C947E00CF
:100040000C9453000C9451000C9451000C945100EA
:100050000C9451000C9451000C9451000C945100DC
:100060000C9451000C94510011241FBECFEFD8E026
:10007000DEBFCDBF11E0A0E0B1E0E8E3F1E002C0F7
:1000800005900D92A230B107D9F721E0A2E0B1E0CE
:1000900001C01D92A430B207E1F70E9489000C94C0
:1000A0009A000C9400001F920F920FB60F92112429
:1000B0008F9380910001813011F42D9A01C02D9809
:1000C0008091030188BD809102018F5F80930201BE
:1000D00080910201883C61F480910001813019F423
:1000E0001092000103C081E0809300011092020190
:1000F0008F910F900FBE0F901F9018951F920F9227
:100100000FB60F9211242D980F900FBE0F901F90D5
:100110001895259A85B5836085BDEEE6F0E080816F
:100120008460808380818160808378948FEF809366
:080130000301FFCFF894FFCF9B
:020138000100C4
:00000001FF
