S01700004763634170706C69636174696F6E322E737265635A
S11300000C9434000C943E000C943E000C943E007E
S11300100C943E000C943E000C943E000C943E0064
S11300200C943E000C943E000C943E000C943E0054
S11300300C943E000C943E000C943E000C943E0044
S11300400C943E000C943E000C943E000C943E0034
S11300500C943E000C943E000C943E000C943E0024
S11300600C943E000C943E0011241FBECFEFD8E048
S1130070DEBFCDBF0E9440000C947C000C940000B5
S1130080ECE7F0E0808180648083EAE7F0E080813F
S1130090846080838081806880838AB18FEF8AB98D
S11300A0A8E7B0E061E070E08081806480838081B3
S11300B086FDFDCF8D919C911197880F892F881F04
S11300C0990B9195482F1BB880E09BB19B01082E9A
S11300D002C0220F331F0A94E2F7292B2BB98F5F3A
S11300E0481798F72FEF80E792E021508040904026
S10F00F0E1F700C00000D8CFF894FFCF67
S9030000FC
