S0120000736572766F42757456312E7372656331
S11300000C9434000C943E000C943E000C943E007E
S11300100C943E000C943E000C943E000C943E0064
S11300200C943E000C943E000C943E000C943E0054
S11300300C943E000C943E000C943E000C943E0044
S11300400C943E000C943E000C943E000C943E0034
S11300500C943E000C943E000C943E000C943E0024
S11300600C943E000C943E0011241FBECFEFD8E048
S1130070DEBFCDBF0E9440000C947A000C940000B7
S11300808FE39CE99093870080938600E0E8F0E09A
S1130090808182608083808180688083E1E8F0E0F1
S11300A080818A618083219A569A87EE93E09093A7
S11300B089008093880084B18AB18F738AB9289AA1
S11300C08BB1806C8BB9E8E8F0E028E833E143E5D4
S11300D05BE087EE93E0189903C091838083FBCFA4
S11300E04F9B03C051834083F6CF4E9BF4CF3183A3
S10B00F02083F1CFF894FFCF47
S9030000FC
