S00F0000736572766F56332E737265635D
S11300000C9434000C943E000C943E000C943E007E
S11300100C943E000C943E000C943E000C943E0064
S11300200C943E000C943E000C943E000C943E0054
S11300300C943E000C943E000C943E000C943E0044
S11300400C943E000C943E000C943E000C943E0034
S11300500C943E000C943E000C943E000C943E0024
S11300600C943E000C943E0011241FBECFEFD8E048
S1130070DEBFCDBF0E9440000C94AE000C94000083
S11300808FE39CE99093870080938600E0E8F0E09A
S1130090808182608083808180688083E1E8F0E0F1
S11300A080818A618083219A569A88EE93E09093A6
S11300B0890080938800E8E8F0E068EE73E024E5C6
S11300C03BE040EC52E188EE93E091838083AFE320
S11300D0BCE91197F1F700C000004496803CB2E1FE
S11300E09B0799F780EC92E191838083AFE3BCE9AD
S11300F01197F1F700C000004497883EB3E09B07D6
S113010099F7718360838FEF99E6A8E1815090405D
S1130110A040E1F700C0000031832083BFEF89E6EF
S113012098E1B15080409040E1F700C00000518355
S11301304083AFEFB9E688E1A150B0408040E1F7D9
S113014000C00000318320839FEFA9E6B8E19150FD
S1130150A040B040E1F700C00000B5CFF894FFCF55
S9030000FC
